:100000000C94FC000C9422010C9422010C9422010B
:100010000C9422010C9422010C9422010C942201D4
:100020000C9422010C9422010C9422010C942201C4
:100030000C9422010C9422010C9422010C942201B4
:100040000C9422010C9422010C9422010C942201A4
:100050000C9435010C9422010C9422010C94220181
:100060000C9422010C9422010C9422010C94220184
:100070000C9422010C9422010C9422010C94220174
:100080000C9422010C9422010C9422010C94220164
:100090000C9422010C9422010C9422010C94220154
:1000A0000C9422010C9422010C9422010C94220144
:1000B0000C9422010C9422010C9422010C94220134
:1000C0000C9422010C9422010C9422010C94220124
:1000D0000C9422010C9422010C9422010C94220114
:1000E0000C9422010C9422010C9422010C94220104
:1000F0000C9422010C9422010C9422010C942201F4
:100100000C9422010C9422010C9422010C942201E3
:100110000C9422010C9422010C9422010C942201D3
:100120000C9422010C9422010C9422010C942201C3
:100130000C9422010C9422010C9422010C942201B3
:100140000C9422010C9422010C9422010C942201A3
:100150000C9422010C9422010C9422010C94220193
:100160000C9422010C9422010C9422010C94220183
:100170000C9422010C9422010C9422010C94220173
:100180000C9422010C9422010C9422010C94220163
:100190000C9422010C9422010C9422010C94220153
:1001A0000C9422010C9422010C9422010C94220143
:1001B0000C9422010C9422010C9422010C94220133
:1001C0000C9422010C9422010C9422010C94220123
:1001D0000C9422010C9422010C9422010C94220113
:1001E0000C9422010C9422010C9422010C94220103
:1001F0000C9422010C94240111241FBECFEFCDBF1B
:10020000DFE3DEBF00E00CBF18BE19BE1ABE1BBE86
:1002100010E2A0E0B0E2ECEEFFE000E00BBF02C0B5
:1002200007900D92AE30B107D9F71BBE20E2AEE0C9
:10023000B0E201C01D92A634B207E1F70E94DF03CD
:100240000C94F4070C940000CF93C82F8A3019F453
:100250008DE00E9424018091A10885FFFCCFC0930E
:10026000A00880E090E0CF9108951F920F920FB602
:100270000F92112408B60F9218BE09B60F9219BE3C
:100280000BB60F921BBECF92DF92EF92FF922F938D
:100290003F934F935F936F937F938F939F93AF930E
:1002A000BF93EF93FF938091240290912502809356
:1002B000222090932320609122207091232080E0BF
:1002C00090E00E94410520E030EF4FE755E40E94A6
:1002D00099042FE832EC45EF5CE30E942704609319
:1002E0001E2070931F2080932020909321208091C6
:1002F00020089091210880933020909331208091A4
:10030000302090913120992324F4109230201092C3
:1003100031206091302070913120072E000C880B25
:10032000990B0E94430520E030E04FE254E40E9424
:10033000990460932C2070932D2080932E2090930D
:100340002F2060912C2070912D2080912E20909153
:100350002F2020E030EF4FE755E40E94F80560932E
:1003600028207093292080932A2090932B2060913D
:1003700028207091292080912A2090912B2020E024
:1003800030E0A9010E949404882344F410922820AC
:100390001092292010922A2010922B2060911E206A
:1003A00070911F20809120209091212020912C205D
:1003B00030912D2040912E2050912F200E94270413
:1003C00060932420709325208093262090932720EB
:1003D0008AE999E9A9E5BFEB809312209093132055
:1003E000A0931420B09315206091242070912520B3
:1003F000809126209091272020E635EE40E250E4BF
:100400000E94F8052091342030913520409136200B
:10041000509137200E9428046B017C0160913820A4
:100420007091392080913A2090913B2027ED33EA5A
:1004300040E250E40E94F8059B01AC01C701B601FF
:100440000E94270460931A2070931B2080931C2025
:1004500090931D208091242090912520A09126200A
:10046000B09127208093382090933920A0933A2090
:10047000B0933B2080911A2090911B20A0911C20CA
:10048000B0911D208093342090933520A093362086
:10049000B093372080911A2090911B20A0911C20AE
:1004A000B0911D20BC01CD019F7720910620309195
:1004B000072040910820509109200E94F3058823CD
:1004C000D4F040911A2050911B2060911C20709113
:1004D0001D208091062090910720A0910820B091C6
:1004E000092077FBB7F980931A2090931B20A093E3
:1004F0001C20B0931D2060911A2070911B208091C8
:100500001C2090911D2020911220309113204091A9
:100510001420509115200E94280420910E20309123
:100520000F2040911020509111200E94F80520E0EA
:1005300030E040E055E40E94280460931620709358
:1005400017208093182090931920609116207091A5
:100550001720809118209091192020E030E0A90107
:100560000E949404882344F41092162010921720BD
:100570001092182010921920609116207091172067
:10058000809118209091192020E030EF4FE755E43A
:100590000E94F305181664F480E090EFAFE7B5E42D
:1005A0008093162090931720A0931820B0931920C1
:1005B0008091250380FFFCCF609116207091172059
:1005C00080911820909119200E940B0560933803A8
:1005D000709339038091250381FFFCCF609128201F
:1005E0007091292080912A2090912B200E940B0548
:1005F00060933A0370933B0380E880936706FF9112
:10060000EF91BF91AF919F918F917F916F915F918A
:100610004F913F912F91FF90EF90DF90CF900F90EF
:100620000BBE0F9009BE0F9008BE0F900FBE0F902B
:100630001F901895E0E5F0E08081826080838091D2
:10064000510081FFFCCF88ED84BF81E080934000A2
:100650000895E0E4F6E088E0818384E08283E0EAC4
:10066000F8E08581836085838BE6868380EB8783D2
:1006700084818860848360E070E084E291E00E947D
:1006800065060895E0E6F6E083E082838089836072
:10069000808BE0E8F1E088E6808380858960808750
:1006A000E0E0F8E0838188668383808181608083D5
:1006B0000895AAECB1E092E09C93E82FF0E08491D9
:1006C0001C920895CF93DF93EC01C11582E0D80707
:1006D00039F480E20E94590390E08C879D8706C020
:1006E00084E20E94590390E08C879D87DF91CF912F
:1006F000089580E092E00E946203E0E0F2E08181F0
:100700008860818382818260828380A1816080A3EE
:100710008481826084838081816080830895CF9307
:10072000DF93EC01C11583E0D80749F480E30E9410
:100730005903898781E30E945903888708C082E3AF
:100740000E945903898783E30E9459038887DF91B8
:10075000CF91089580E293E00E948F03E0E2F3E0FE
:1007600081818064818382818283848180658483A6
:10077000118E138E80818D60808380E093E00E94D3
:100780008F03E0E0F3E08181806481838281828352
:10079000848180658483118E138E80818D60808337
:1007A00008959C01E0E4F8E0818181839681916065
:1007B000968326A337A380818360808308950E9457
:1007C0001A030E9442030E9429030E94AA030E9466
:1007D000790380E88093610660910620709107207C
:1007E00080910820909109209B01AC010E9428046F
:1007F0009B01AC0160E070EF8FE795E40E949904E3
:1008000060930E2070930F208093102090931120FE
:1008100060910A2070910B2080910C2090910D2006
:1008200020E034E244EF5AE40E94F8050E941205E9
:100830006093322070933320809132209091332046
:100840000E94D10387E08093A2007894FFCF505894
:10085000BB27AA270E943F040C94B9050E94AB0550
:1008600038F00E94B20520F039F49F3F19F426F4C5
:100870000C94A8050EF4E095E7FB0C94A205E92F73
:100880000E94CA0558F3BA176207730784079507D1
:1008900020F079F4A6F50C94EC050EF4E0950B2EFF
:1008A000BA2FA02D0B01B90190010C01CA01A001C2
:1008B0001124FF27591B99F0593F50F4503E68F11D
:1008C0001A16F040A22F232F342F4427585FF3CF5E
:1008D000469537952795A795F0405395C9F77EF42F
:1008E0001F16BA0B620B730B840BBAF09150A1F078
:1008F000FF0FBB1F661F771F881FC2F70EC0BA0FFE
:10090000621F731F841F48F4879577956795B79585
:10091000F7959E3F08F0B0CF9395880F08F0992780
:10092000EE0F9795879508950E947E0508F481E063
:1009300008950E94AD040C94B9050E94B20558F0C8
:100940000E94AB0540F029F45F3F29F00C94A2050A
:1009500051110C94ED050C94A8050E94CA0568F38A
:100960009923B1F3552391F3951B550BBB27AA2768
:1009700062177307840738F09F5F5F4F220F331FA2
:10098000441FAA1FA9F335D00E2E3AF0E0E832D06A
:1009900091505040E695001CCAF72BD0FE2F29D06D
:1009A000660F771F881FBB1F261737074807AB073F
:1009B000B0E809F0BB0B802DBF01FF2793585F4FB4
:1009C0003AF09E3F510578F00C94A2050C94ED0589
:1009D0005F3FE4F3983ED4F3869577956795B79596
:1009E000F7959F5FC9F7880F911D9695879597F9A1
:1009F0000895E1E0660F771F881FBB1F621773071A
:100A00008407BA0720F0621B730B840BBA0BEE1F2E
:100A100088F7E09508950E9412056894B1110C942E
:100A2000ED0508950E94D20588F09F5798F0B92FE0
:100A30009927B751B0F0E1F0660F771F881F991F13
:100A40001AF0BA95C9F714C0B13091F00E94EC05C4
:100A5000B1E008950C94EC05672F782F8827B85FD4
:100A600039F0B93FCCF3869577956795B395D9F76B
:100A70003EF490958095709561957F4F8F4F9F4F75
:100A80000895E89409C097FB3EF490958095709581
:100A900061957F4F8F4F9F4F9923A9F0F92F96E9CA
:100AA000BB279395F695879577956795B795F1113F
:100AB000F8CFFAF4BB0F11F460FF1BC06F5F7F4FDC
:100AC0008F4F9F4F16C0882311F096E911C07723EE
:100AD00021F09EE8872F762F05C0662371F096E8F7
:100AE000862F70E060E02AF09A95660F771F881FC6
:100AF000DAF7880F9695879597F90895990F00086A
:100B0000550FAA0BE0E8FEEF16161706E807F907DF
:100B1000C0F012161306E407F50798F0621B730B7A
:100B2000840B950B39F40A2661F0232B242B252BFB
:100B300021F408950A2609F4A140A6958FEF811D9E
:100B4000811D089597F99F6780E870E060E008953F
:100B50009FEF80EC089500240A94161617061806D5
:100B60000906089500240A941216130614060506B1
:100B70000895092E0394000C11F4882352F0BB0F42
:100B800040F4BF2B11F460FF04C06F5F7F4F8F4FA5
:100B90009F4F089557FD9058440F551F59F05F3FE0
:100BA00071F04795880F97FB991F61F09F3F79F08F
:100BB00087950895121613061406551FF2CF469511
:100BC000F1DF08C0161617061806991FF1CF869593
:100BD0007105610508940895E894BB276627772777
:100BE000CB0197F908950E947E0508F48FEF0895D0
:100BF0000E940B060C94B9050E94AB0538F00E94C8
:100C0000B20520F0952311F00C94A2050C94A805D0
:100C100011240C94ED050E94CA0570F3959FC1F351
:100C2000950F50E0551F629FF001729FBB27F00D9A
:100C3000B11D639FAA27F00DB11DAA1F649F6627EF
:100C4000B00DA11D661F829F2227B00DA11D621F3E
:100C5000739FB00DA11D621F839FA00D611D221FF8
:100C6000749F3327A00D611D231F849F600D211DDC
:100C7000822F762F6A2F11249F5750409AF0F1F05F
:100C800088234AF0EE0FFF1FBB1F661F771F881FC8
:100C900091505040A9F79E3F510580F00C94A20559
:100CA0000C94ED055F3FE4F3983ED4F38695779579
:100CB0006795B795F795E7959F5FC1F7FE2B880F6E
:100CC000911D9695879597F908950F931F93CF934C
:100CD000DF93009731F46115710519F480E090E01D
:100CE0003AC08B01EC016EE070E081E090E00E9480
:100CF000B006FC01892B91F380E88383011511056F
:100D000071F00287138781E8838380913C20909162
:100D10003D20892B21F4E0933C20F0933D20209747
:100D2000C9F0C087D18783818260838380913E2010
:100D300090913F20892B71F4E0933E20F0933F2067
:100D40008091402090914120892B21F4E093402014
:100D5000F0934120CF01DF91CF911F910F91089522
:100D60000F931F93CF93DF93869F8001879F100D72
:100D7000969F100D1124C8010E94CC06EC0100972B
:100D800029F0A80160E070E00E94ED07CE01DF913C
:100D9000CF911F910F9108950F931F93CF93DF93DE
:100DA0008230910510F482E090E0E0914420F091CF
:100DB000452020E030E0A0E0B0E0309719F140811C
:100DC00051810281138148175907C8F0841795078C
:100DD00069F4109731F012960C93129713961C93A6
:100DE00027C0009344201093452022C021153105CF
:100DF00019F04217530718F49A01BD01EF01DF0102
:100E0000F801DBCF21153105F9F0281B390B24300F
:100E1000310580F48A819B816115710521F0FB0108
:100E20008283938304C08093442090934520FE01E5
:100E3000329644C0FE01E20FF31F8193919322503A
:100E40003109288339833AC02091422030914320D0
:100E5000232B41F420910220309103202093422043
:100E6000309343202091002030910120211531053D
:100E700041F42DB73EB74091042050910520241B2A
:100E8000350BE0914220F0914320E217F307A0F4E4
:100E90002E1B3F0B2817390778F0AC014E5F5F4FD0
:100EA0002417350748F04E0F5F1F409342205093A0
:100EB00043208193919302C0E0E0F0E0CF01DF9105
:100EC000CF911F910F910895CF93DF93009709F46D
:100ED00081C0FC01329712821382A0914420B0910C
:100EE0004520109781F420813181820F931F20913A
:100EF0004220309143202817390751F5E0934220D2
:100F0000F093432067C0ED0120E030E0CE17DF070B
:100F100040F44A815B819E0141155105F1F0EA01DF
:100F2000F5CFC283D38340815181840F951FC817A9
:100F3000D90759F488819981840F951F029680837F
:100F400091838A819B81828393832115310529F4C2
:100F5000E0934420F09345203DC0E901EA83FB8300
:100F600049915991C40FD51FEC17FD0761F4808199
:100F70009181840F951F0296E9018883998382816C
:100F800093818A839B83E0E0F0E012968D919C919F
:100F90001397009719F0FD01DC01F7CF8D919C911B
:100FA00011979D012E5F3F4F820F931F209142208A
:100FB000309143202817390769F4309729F41092AB
:100FC00044201092452002C012821382A093422036
:100FD000B0934320DF91CF910895DC0101C06D9360
:0C0FE00041505040E0F70895F894FFCF16
:0E0FEC000000462020000000404117B7513998
:00000001FF
