:1000000019C020C01FC01EC01DC01CC01BC01AC00C
:1000100019C018C017C016C015C014C013C012C034
:1000200011C010C00FC00EC00DC00CC00BC00AC064
:1000300009C008C011241FBECFEFD4E0DEBFCDBF82
:1000400008D044C0DDCF8EBD0DB407FEFDCF8EB508
:1000500008958CE284B980EE8AB987E880937A00AB
:1000600080E58CBD81E08DBD10927C00EAE7F0E078
:1000700080818064808380917A0086FDFCCFC0916E
:100080007800D0917900CC0FDD1FCC0FDD1FCA396D
:1000900089E0D80718F08FE78BB909C0C63686E02B
:1000A000D80718F48FED8BB902C08FEB8BB9CE0156
:1000B00088279F7085B18B7F85B980E3890FC3DF67
:1000C0008C2FC1DF85B1846085B9CECFF894FFCF86
:00000001FF
