:1000000019C028C027C026C025C024C023C022C0D4
:1000100021C020C01FC051C01DC01CC01BC01AC0C1
:1000200019C018C017C016C015C014C013C012C024
:1000300011C010C011241FBECFEFD4E0DEBFCDBF72
:1000400021E0A0E0B1E001C01D92A530B207E1F7C8
:1000500012D0ABC0D5CFCF93DF931F92CDB7DEB711
:10006000898389818EBD0DB407FEFDCF8EB50F90BB
:10007000DF91CF9108958CE284B980EE8AB987E848
:1000800080937A0080E58CBD81E08DBD80E287B9E8
:10009000E1E8F0E0808188608083AFE6B0E08C9199
:1000A00082608C9378948FE79EE39093890080938D
:1000B0008800808181608083FFCF1F920F920FB6EE
:1000C0000F9211242F933F934F935F936F937F93DE
:1000D0008F939F93AF93BF93EF93FF9398B180E279
:1000E000892788B910927C00EAE7F0E0808180647B
:1000F000808380917A0086FDFCCF8091780090917A
:100100007900880F991F880F991F9093030180939E
:10011000020180910201909103018A39994018F0FF
:100120008FE78BB90CC08091020190910301863654
:10013000964018F48FED8BB902C08FEB8BB91092FB
:100140000401809102019091030188279F70909390
:10015000040180910401805D80930401809102017B
:10016000909103018093000185B18B7F85B98091C7
:10017000040171DF80930101809100016CDF8093A5
:10018000010185B1846085B9FF91EF91BF91AF9175
:100190009F918F917F916F915F914F913F912F919F
:0E01A0000F900FBE0F901F901895F894FFCF90
:00000001FF
