S0120000656E636F6465725350492E7372656346
S113000019C028C027C026C025C024C023C022C0D0
S113001021C020C01FC01EC01DC01CC01BC01AC0F0
S113002019C018C017C016C015C014C013C012C020
S113003011C010C011241FBECFEFD4E0DEBFCDBF6E
S113004021E0A0E0B1E001C01D92A030B207E1F7C9
S113005002D035C0D5CF87B1806287B984B18061C1
S113006084B984B1837D84B980E48CBD8DB383600D
S11300708DBBE9E6F0E080818560808388B18F6D77
S113008088B91EBC0DB407FEFDCF98B180E2892764
S113009088B98EB58F3F19F49AEA9EBD04C08F309B
S11300A011F49BEB9EBD8E3E19F48CEC8EBDEACF11
S11300B08E3019F48DED8EBDE5CF1EBCE3CFF894E0
S10500C0FFCF6C
S9030000FC
