:1000000019C033C032C031C030C02FC02EC02DC087
:100010002CC02BC02AC029C028C027C026C025C09C
:1000200024C023C022C021C020C01FC01EC01DC0CC
:100030001CC01BC011241FBECFEFD4E0DEBFCDBF5C
:1000400011E0A0E0B1E0EEEAFCE002C005900D9204
:10005000A232B107D9F721E0A2E2B1E001C01D92BE
:10006000A832B207E1F718D020C6CACFCF93C82F65
:100070008A3011F48DE0FADF8091C00085FFFCCF5B
:10008000C093C60080E090E0CF9108958EBD0DB47E
:1000900007FEFDCF8EB50895CF93DF93CDB7DEB7C2
:1000A0002A970FB6F894DEBF0FBECDBF1092C500E1
:1000B00087E68093C40088E18093C10080E091E0EE
:1000C000909325018093240110927C0087E880930F
:1000D0007A008CE284B982E88AB982E58CBD1DBCC5
:1000E0000F2EC12CD12CF0E4EF2EF0ECFF2EF02DD2
:1000F0002AE037ED43EA5BE3C701B601A1D06B010B
:100100007C0120E030E040E450E478D2882344F0E1
:100110000F2EC12CD12CF0E4EF2EF0ECFF2EF02DA1
:10012000EAE7F0E080818064808380917A0086FD38
:10013000FCCF20917800309179003A872987B90166
:1001400080E090E07AD120E030E040EA5CE35AD2EF
:1001500020E030E040E251E472D069837A838B83FF
:100160009C839B01AC01C701B60169D06D837E837E
:100170008F83988720E030E040E05FE343D24B017B
:100180005C019F7720E030E040EC50E437D28823D8
:1001900054F080E090E0A0ECB0E49C01AD01B7FA2F
:1001A00057F949015A0120E030E040E251E4C5012D
:1001B000B40146D020E030E040E855E423D220E00E
:1001C00030E040EA51E4A0D075D10BD12B013C01C5
:1001D0005F926F93C501B401FFD07F936F936D81E0
:1001E0007E818F819885F8D07F936F93C701B60188
:1001F000F3D07F936F9369817A818B819C81ECD05E
:100200007F936F933A853F9349854F938EE091E0BA
:100210009F938F937ED2C20188279F7085B18B7F79
:1002200085B980E3890F32DF842D30DF85B18460AA
:1002300085B90FB6F894DEBF0FBECDBF59CF505869
:10024000BB27AA270ED089C17AD130F07FD120F008
:1002500031F49F3F11F41EF46FC10EF4E095E7FBFB
:100260003CC1E92F8BD180F3BA176207730784076B
:10027000950718F071F49EF5BAC10EF4E0950B2EB7
:10028000BA2FA02D0B01B90190010C01CA01A001E8
:100290001124FF27591B99F0593F50F4503E68F143
:1002A0001A16F040A22F232F342F4427585FF3CF84
:1002B000469537952795A795F0405395C9F77EF455
:1002C0001F16BA0B620B730B840BBAF09150A1F09E
:1002D000FF0FBB1F661F771F881FC2F70EC0BA0F24
:1002E000621F731F841F48F4879577956795B795AC
:1002F000F7959E3F08F0B3CF9395880F08F09927A4
:10030000EE0F9795879508950CD027C11FD140F027
:1003100016D130F021F45F3F19F0DFC0511168C1F0
:100320000BC12CD198F39923C9F35523B1F3951B35
:10033000550BBB27AA2762177307840738F09F5F06
:100340005F4F220F331F441FAA1FA9F333D00E2E75
:100350003AF0E0E830D091505040E695001CCAF7E2
:1003600029D0FE2F27D0660F771F881FBB1F2617A7
:1003700037074807AB07B0E809F0BB0B802DBF017A
:10038000FF2793585F4F2AF09E3F510568F0A5C0A4
:100390002FC15F3FECF3983EDCF386957795679528
:1003A000B795F7959F5FC9F7880F911D969587952B
:1003B00097F90895E1E0660F771F881FBB1F62174A
:1003C00073078407BA0720F0621B730B840BBA0B08
:1003D000EE1F88F7E095089504D06894B11108C124
:1003E0000895D4D088F09F5790F0B92F9927B7512E
:1003F000A0F0D1F0660F771F881F991F1AF0BA95E9
:10040000C9F712C0B13081F0F2D0B1E00895EFC069
:10041000672F782F8827B85F39F0B93FCCF38695DE
:1004200077956795B395D9F73EF49095809570953B
:1004300061957F4F8F4F9F4F0895E89409C097FBB8
:100440003EF490958095709561957F4F8F4F9F4FAB
:100450009923A9F0F92F96E9BB279395F6958795EF
:1004600077956795B795F111F8CFFAF4BB0F11F4B2
:1004700060FF1BC06F5F7F4F8F4F9F4F16C0882359
:1004800011F096E911C0772321F09EE8872F762F8F
:1004900005C0662371F096E8862F70E060E02AF0D0
:1004A0009A95660F771F881FDAF7880F96958795BC
:1004B00097F9089585D080F09F3740F491110EF0A0
:1004C00097C060E070E080E89FEB089526F41B166B
:1004D000611D711D811D07C021C097F99F6780E8CC
:1004E00070E060E00895882371F4772321F098503C
:1004F000872B762F07C0662311F499270DC09051E2
:10050000862B70E060E02AF09A95660F771F881FAF
:10051000DAF7880F9695879597F908959F3F31F000
:10052000915020F4879577956795B795880F911D21
:100530009695879597F908959FEF80EC089500248C
:100540000A941616170618060906089500240A9438
:1005500012161306140605060895092E0394000CBE
:1005600011F4882352F0BB0F40F4BF2B11F460FF4D
:1005700004C06F5F7F4F8F4F9F4F089557FD905876
:10058000440F551F59F05F3F71F04795880F97FB57
:10059000991F61F09F3F79F0879508951216130611
:1005A0001406551FF2CF4695F1DF08C01616170640
:1005B0001806991FF1CF8695710561050894089575
:1005C000E5DFA0F0BEE7B91788F4BB279F3860F4D9
:1005D0001616B11D672F782F8827985FF7CF86955D
:1005E00077956795B11D93959639C8F30895E8946A
:1005F000BB2766277727CB0197F9089566D008F4C3
:100600008FEF08950BD0A9CF9ADF28F09FDF18F065
:10061000952309F062CF90CF1124EACFAFDFA0F38A
:10062000959FD1F3950F50E0551F629FF001729F87
:10063000BB27F00DB11D639FAA27F00DB11DAA1FA6
:10064000649F6627B00DA11D661F829F2227B00DF3
:10065000A11D621F739FB00DA11D621F839FA00D7E
:10066000611D221F749F3327A00D611D231F849FCE
:10067000600D211D822F762F6A2F11249F57504025
:100680008AF0E1F088234AF0EE0FFF1FBB1F661FC0
:10069000771F881F91505040A9F79E3F510570F079
:1006A0001CCFA6CF5F3FECF3983EDCF386957795A1
:1006B0006795B795F795E7959F5FC1F7FE2B880F74
:1006C000911D9695879597F90895990F0008550FF4
:1006D000AA0BE0E8FEEF16161706E807F907C0F0C8
:1006E00012161306E407F50798F0621B730B840BD0
:1006F000950B39F40A2661F0232B242B252B21F4AA
:1007000008950A2609F4A140A6958FEF811D811D49
:100710000895A0E0B0E0EEE8F3E0A0C2AE014B5FC8
:100720005F4FFA0161917191AF0180912401909125
:10073000250102D0E2E0AEC2ABE0B0E0E1EAF3E0D6
:100740007DC26C017B018A01FC01178216828381C4
:1007500081FFBFC1CE0101963C01F6019381F701F3
:1007600093FD859193FF81917F01882309F4ADC1A9
:10077000853239F493FD859193FF81917F01853214
:1007800021F4B60190E0C0D1E8CF912C212C312C7E
:10079000FFE1F315D8F08B3279F038F4803279F03C
:1007A0008332A1F4232D20611DC08D3261F080338E
:1007B00069F4232D216016C0832D8260382EE32D2D
:1007C000E4603E2E2AC0F32DF8601DC037FC2DC01A
:1007D00020ED280F2A3040F08E32B9F436FC75C176
:1007E000232D2064322E19C036FE06C08AE0989E62
:1007F000200D1124922E11C0EAE02E9E200D11240E
:10080000222EF32DF0623F2E08C08C3621F4832D6A
:100810008068382E02C0883641F4F70193FD859137
:1008200093FF81917F018111B3CF982F9F7D9554C4
:10083000933028F40C5F1F4F9FE399830DC08336DC
:1008400031F0833771F0833509F055C020C0F801CD
:10085000808189830E5F1F4F88248394912C5301DC
:1008600012C02801F2E04F0E511CF801A080B180A7
:1008700036FE03C0692D70E002C06FEF7FEFC50147
:1008800038D14C018201F32DFF773F2E15C028018E
:1008900022E0420E511CF801A080B18036FE03C058
:1008A000692D70E002C06FEF7FEFC50117D14C01D9
:1008B000F32DF0683F2E820133FC19C0822D90E0A9
:1008C00088169906A0F4B60180E290E01DD12A9422
:1008D000F5CFF50137FC859137FE81915F01B601B7
:1008E00090E012D121102A9421E0821A91088114FB
:1008F000910479F7E1C0843611F0893639F5F801B1
:1009000037FE07C060817181828193810C5F1F4F28
:1009100008C060817181072E000C880B990B0E5F57
:100920001F4FF32DFF763F2E97FF09C090958095BE
:10093000709561957F4F8F4F9F4FF0683F2E2AE053
:1009400030E0A3011DD1882E861844C0853731F4CC
:10095000232D2F7EB22E2AE030E025C0932D997FE3
:10096000B92E8F36C1F018F4883579F0AEC08037D3
:1009700019F0883721F0A9C0E92FE061BE2EB4FE3E
:100980000DC0FB2DF460BF2E09C034FE0AC0292F14
:100990002660B22E06C028E030E005C020E130E03D
:1009A00002C020E132E0F801B7FE07C0608171812A
:1009B000828193810C5F1F4F06C06081718180E04E
:1009C00090E00E5F1F4FA301DBD0882E8618FB2D11
:1009D000FF773F2E36FE0DC0232D2E7FA22E8914C9
:1009E00058F434FE0BC032FC09C0832D8E7EA82E35
:1009F00005C0B82CA32C03C0B82C01C0B92CA4FE90
:100A00000FC0FE01E80DF11D8081803321F49A2D85
:100A1000997EA92E09C0A2FE06C0B394B39404C067
:100A20008A2D867809F0B394A3FC10C0A0FE06C0FE
:100A3000B21480F4280C922C9B180DC0B21458F4F8
:100A4000B60180E290E060D0B394F8CFB21418F40D
:100A50002B1802C0982C212CA4FE0FC0B60180E3F5
:100A600090E052D0A2FE16C0A1FC03C088E790E03F
:100A700002C088E590E0B6010CC08A2D867851F05E
:100A8000A1FE02C08BE201C080E2A7FC8DE2B601AC
:100A900090E03AD0891430F4B60180E390E034D08D
:100AA0009A94F8CF8A94F301E80DF11D8081B60184
:100AB00090E02AD08110F6CF222009F44ECEB60164
:100AC00080E290E021D02A94F7CFF60186819781C9
:100AD00002C08FEF9FEF2B96E2E1CCC0FC010590A6
:100AE000615070400110D8F7809590958E0F9F1F30
:100AF0000895FC016150704001900110D8F7809575
:100B000090958E0F9F1F08950F931F93CF93DF93A0
:100B1000FB01238121FD03C08FEF9FEF2CC022FF3B
:100B200016C046815781248135814217530744F40A
:100B3000A081B1819D012F5F3F4F318320838C9332
:100B4000268137812F5F3F4F3783268314C08B0167
:100B5000EC01FB010084F185E02D0995892BE1F67C
:100B6000D80116968D919C911797019617969C9394
:100B70008E931697CE01DF91CF911F910F9108951B
:100B8000FA01AA27283051F1203181F1E8946F93BE
:100B90006E7F6E5F7F4F8F4F9F4FAF4FB1E03ED064
:100BA000B4E03CD0670F781F891F9A1FA11D680F02
:100BB000791F8A1F911DA11D6A0F711D811D911D35
:100BC000A11D20D009F468943F912AE0269F1124AA
:100BD0003019305D3193DEF6CF010895462F47700E
:100BE000405D4193B3E00FD0C9F7F6CF462F4F7069
:100BF000405D4A3318F0495D31FD4052419302D0C7
:100C0000A9F7EACFB4E0A69597958795779567956C
:100C1000BA95C9F700976105710508959B01AC016C
:100C20000A2E06945795479537952795BA95C9F793
:100C3000620F731F841F951FA01D08952F923F926E
:100C40004F925F926F927F928F929F92AF92BF92DC
:100C5000CF92DF92EF92FF920F931F93CF93DF9388
:100C6000CDB7DEB7CA1BDB0B0FB6F894DEBF0FBEE5
:100C7000CDBF09942A88398848885F846E847D8432
:100C80008C849B84AA84B984C884DF80EE80FD8034
:100C90000C811B81AA81B981CE0FD11D0FB6F894AA
:0E0CA000DEBF0FBECDBFED010895F894FFCF6B
:100CAE000000000200000000360000000000256475
:100CBE002025642025642025642025642025640ACF
:020CCE00200004
:00000001FF
