S0130000456E636F6465725F5350492E7372656306
S113000019C034C06FC031C030C02FC02EC02DC045
S11300102CC02BC02AC029C028C027C026C025C098
S113002024C023C022C021C020C01FC01EC01DC0C8
S11300301CC01BC011241FBECFEFD4E0DEBFCDBF58
S113004011E0A0E0B1E0E6EEF1E002C005900D920F
S1130050A032B107D9F721E0A0E2B1E001C01D92BE
S1130060A632B207E1F77CD0BCC0CACF1F920F9270
S11300700FB60F9211242F933F938F939F93EF9377
S1130080FF9380912101880F880F8093210189B10A
S11300908C7090E095958795959587959091210121
S11300A0892B80932101E0912101EF70F0E0EE0FA4
S11300B0FF1FE050FF4F20813181809124019091F6
S11300C02501820F931F9093250180932401FF91B2
S11300D0EF919F918F913F912F910F900FBE0F90B1
S11300E01F9018951F920F920FB60F9211242F9301
S11300F03F938F939F93EF93FF9380912001880FF9
S1130100880F8093200189B1887190E09595879537
S1130110959587959595879590912001892B809346
S11301202001E0912001EF70F0E0EE0FFF1FE0509E
S1130130FF4F208131818091220190912301820F10
S1130140931F9093230180932201FF91EF919F913C
S11301508F913F912F910F900FBE0F901F90189584
S113016087B1806287B984B1806184B984B1837DA9
S113017084B980E48CBD8DB383608DBBE9E6F0E087
S1130180808185608083789488B18F6D88B91EBC26
S11301900DB407FEFDCF98B180E2892788B98EB5EA
S11301A08F3F31F420912401309125013EBD07C0D9
S11301B08F3029F420912401309125012EBD8E3EEB
S11301C031F480912201909123019EBDE1CF8E30C4
S11301D031F480912201909123018EBDD9CF1EBCB0
S10901E0D7CFF894FFCF15
S11301E6000000000000FFFF000000000100000006
S11301F60000010000000000FFFF000000000000F6
S9030000FC
